{
  "contractName": "Powerball",
  "abi": [
    {
      "constant": true,
      "inputs": [],
      "name": "winning_number",
      "outputs": [
        {
          "internalType": "uint256",
          "name": "",
          "type": "uint256"
        }
      ],
      "payable": false,
      "stateMutability": "view",
      "type": "function"
    },
    {
      "constant": true,
      "inputs": [],
      "name": "getWinningNumber",
      "outputs": [
        {
          "internalType": "uint256",
          "name": "",
          "type": "uint256"
        }
      ],
      "payable": false,
      "stateMutability": "view",
      "type": "function"
    }
  ],
  "bytecode": "0x608060405234801561001057600080fd5b5060b38061001f6000396000f3fe6080604052348015600f57600080fd5b506004361060325760003560e01c80633fcfa2771460375780638b0b9ed4146053575b600080fd5b603d606f565b6040518082815260200191505060405180910390f35b60596075565b6040518082815260200191505060405180910390f35b60005481565b6000805490509056fea265627a7a7231582094bae24102641e3a046ff608f55904b8f29a3724b911cee2329da0510405595464736f6c63430005100032",
  "source": "pragma solidity ^0.5.16;\n\ncontract Powerball {\n    uint public winning_number;\n\n    // You can read from a state variable without sending a transaction.\n    function getWinningNumber() public view returns (uint) {\n        //TODO: Implement random function to calculate\n        return winning_number;\n    }\n} ",
  "sourcePath": "/Users/derrick/DewdLabs/zk-powerball/contracts/Powerball.sol",
  "compiler": {
    "name": "solc",
    "version": "0.5.16+commit.9c3226ce.Emscripten.clang"
  },
  "schemaVersion": "3.3.4",
  "updatedAt": "2023-03-25T03:33:35.312Z",
  "devdoc": {
    "methods": {}
  },
  "userdoc": {
    "methods": {}
  }
}